{
  "contractName": "MIP20",
  "abi": [
    {
      "inputs": [
        {
          "internalType": "string",
          "name": "_name",
          "type": "string"
        },
        {
          "internalType": "string",
          "name": "_symbol",
          "type": "string"
        }
      ],
      "stateMutability": "nonpayable",
      "type": "constructor"
    },
    {
      "anonymous": false,
      "inputs": [
        {
          "indexed": true,
          "internalType": "address",
          "name": "owner",
          "type": "address"
        },
        {
          "indexed": true,
          "internalType": "address",
          "name": "spender",
          "type": "address"
        },
        {
          "indexed": false,
          "internalType": "uint256",
          "name": "value",
          "type": "uint256"
        }
      ],
      "name": "Approval",
      "type": "event"
    },
    {
      "anonymous": false,
      "inputs": [
        {
          "indexed": true,
          "internalType": "address",
          "name": "_depositor",
          "type": "address"
        },
        {
          "indexed": false,
          "internalType": "uint256",
          "name": "_amount",
          "type": "uint256"
        }
      ],
      "name": "Deposit",
      "type": "event"
    },
    {
      "anonymous": false,
      "inputs": [
        {
          "indexed": true,
          "internalType": "address",
          "name": "_operator",
          "type": "address"
        },
        {
          "indexed": true,
          "internalType": "address",
          "name": "_account",
          "type": "address"
        }
      ],
      "name": "Lock",
      "type": "event"
    },
    {
      "anonymous": false,
      "inputs": [
        {
          "indexed": false,
          "internalType": "address",
          "name": "account",
          "type": "address"
        }
      ],
      "name": "Paused",
      "type": "event"
    },
    {
      "anonymous": false,
      "inputs": [
        {
          "indexed": true,
          "internalType": "address",
          "name": "sender",
          "type": "address"
        },
        {
          "indexed": false,
          "internalType": "uint256",
          "name": "value",
          "type": "uint256"
        }
      ],
      "name": "ReceiveFund",
      "type": "event"
    },
    {
      "anonymous": false,
      "inputs": [
        {
          "indexed": true,
          "internalType": "bytes32",
          "name": "role",
          "type": "bytes32"
        },
        {
          "indexed": true,
          "internalType": "bytes32",
          "name": "previousAdminRole",
          "type": "bytes32"
        },
        {
          "indexed": true,
          "internalType": "bytes32",
          "name": "newAdminRole",
          "type": "bytes32"
        }
      ],
      "name": "RoleAdminChanged",
      "type": "event"
    },
    {
      "anonymous": false,
      "inputs": [
        {
          "indexed": true,
          "internalType": "bytes32",
          "name": "role",
          "type": "bytes32"
        },
        {
          "indexed": true,
          "internalType": "address",
          "name": "account",
          "type": "address"
        },
        {
          "indexed": true,
          "internalType": "address",
          "name": "sender",
          "type": "address"
        }
      ],
      "name": "RoleGranted",
      "type": "event"
    },
    {
      "anonymous": false,
      "inputs": [
        {
          "indexed": true,
          "internalType": "bytes32",
          "name": "role",
          "type": "bytes32"
        },
        {
          "indexed": true,
          "internalType": "address",
          "name": "account",
          "type": "address"
        },
        {
          "indexed": true,
          "internalType": "address",
          "name": "sender",
          "type": "address"
        }
      ],
      "name": "RoleRevoked",
      "type": "event"
    },
    {
      "anonymous": false,
      "inputs": [
        {
          "indexed": true,
          "internalType": "address",
          "name": "from",
          "type": "address"
        },
        {
          "indexed": true,
          "internalType": "address",
          "name": "to",
          "type": "address"
        },
        {
          "indexed": false,
          "internalType": "uint256",
          "name": "value",
          "type": "uint256"
        }
      ],
      "name": "Transfer",
      "type": "event"
    },
    {
      "anonymous": false,
      "inputs": [
        {
          "indexed": true,
          "internalType": "address",
          "name": "_operator",
          "type": "address"
        },
        {
          "indexed": true,
          "internalType": "address",
          "name": "_account",
          "type": "address"
        }
      ],
      "name": "Unlock",
      "type": "event"
    },
    {
      "anonymous": false,
      "inputs": [
        {
          "indexed": false,
          "internalType": "address",
          "name": "account",
          "type": "address"
        }
      ],
      "name": "Unpaused",
      "type": "event"
    },
    {
      "anonymous": false,
      "inputs": [
        {
          "indexed": true,
          "internalType": "address",
          "name": "_depositor",
          "type": "address"
        },
        {
          "indexed": false,
          "internalType": "uint256",
          "name": "_amount",
          "type": "uint256"
        }
      ],
      "name": "Withdraw",
      "type": "event"
    },
    {
      "inputs": [],
      "name": "DEFAULT_ADMIN_ROLE",
      "outputs": [
        {
          "internalType": "bytes32",
          "name": "",
          "type": "bytes32"
        }
      ],
      "stateMutability": "view",
      "type": "function"
    },
    {
      "inputs": [],
      "name": "MINTER_ROLE",
      "outputs": [
        {
          "internalType": "bytes32",
          "name": "",
          "type": "bytes32"
        }
      ],
      "stateMutability": "view",
      "type": "function"
    },
    {
      "inputs": [],
      "name": "PAUSER_ROLE",
      "outputs": [
        {
          "internalType": "bytes32",
          "name": "",
          "type": "bytes32"
        }
      ],
      "stateMutability": "view",
      "type": "function"
    },
    {
      "inputs": [
        {
          "internalType": "address",
          "name": "owner",
          "type": "address"
        },
        {
          "internalType": "address",
          "name": "spender",
          "type": "address"
        }
      ],
      "name": "allowance",
      "outputs": [
        {
          "internalType": "uint256",
          "name": "",
          "type": "uint256"
        }
      ],
      "stateMutability": "view",
      "type": "function"
    },
    {
      "inputs": [
        {
          "internalType": "address",
          "name": "spender",
          "type": "address"
        },
        {
          "internalType": "uint256",
          "name": "amount",
          "type": "uint256"
        }
      ],
      "name": "approve",
      "outputs": [
        {
          "internalType": "bool",
          "name": "",
          "type": "bool"
        }
      ],
      "stateMutability": "nonpayable",
      "type": "function"
    },
    {
      "inputs": [
        {
          "internalType": "address",
          "name": "account",
          "type": "address"
        }
      ],
      "name": "balanceOf",
      "outputs": [
        {
          "internalType": "uint256",
          "name": "",
          "type": "uint256"
        }
      ],
      "stateMutability": "view",
      "type": "function"
    },
    {
      "inputs": [
        {
          "internalType": "uint256",
          "name": "amount",
          "type": "uint256"
        }
      ],
      "name": "burn",
      "outputs": [],
      "stateMutability": "nonpayable",
      "type": "function"
    },
    {
      "inputs": [
        {
          "internalType": "address",
          "name": "account",
          "type": "address"
        },
        {
          "internalType": "uint256",
          "name": "amount",
          "type": "uint256"
        }
      ],
      "name": "burnFrom",
      "outputs": [],
      "stateMutability": "nonpayable",
      "type": "function"
    },
    {
      "inputs": [],
      "name": "decimals",
      "outputs": [
        {
          "internalType": "uint8",
          "name": "",
          "type": "uint8"
        }
      ],
      "stateMutability": "view",
      "type": "function"
    },
    {
      "inputs": [
        {
          "internalType": "address",
          "name": "spender",
          "type": "address"
        },
        {
          "internalType": "uint256",
          "name": "subtractedValue",
          "type": "uint256"
        }
      ],
      "name": "decreaseAllowance",
      "outputs": [
        {
          "internalType": "bool",
          "name": "",
          "type": "bool"
        }
      ],
      "stateMutability": "nonpayable",
      "type": "function"
    },
    {
      "inputs": [
        {
          "internalType": "uint256",
          "name": "_amount",
          "type": "uint256"
        }
      ],
      "name": "deposit",
      "outputs": [],
      "stateMutability": "nonpayable",
      "type": "function"
    },
    {
      "inputs": [
        {
          "internalType": "address",
          "name": "_depositor",
          "type": "address"
        }
      ],
      "name": "depositOf",
      "outputs": [
        {
          "internalType": "uint256",
          "name": "",
          "type": "uint256"
        }
      ],
      "stateMutability": "view",
      "type": "function"
    },
    {
      "inputs": [
        {
          "internalType": "uint256",
          "name": "i",
          "type": "uint256"
        }
      ],
      "name": "getHolderAt",
      "outputs": [
        {
          "internalType": "address",
          "name": "",
          "type": "address"
        }
      ],
      "stateMutability": "view",
      "type": "function"
    },
    {
      "inputs": [
        {
          "internalType": "uint256",
          "name": "i",
          "type": "uint256"
        }
      ],
      "name": "getHolderBalanceAt",
      "outputs": [
        {
          "internalType": "address",
          "name": "holder",
          "type": "address"
        },
        {
          "internalType": "uint256",
          "name": "balance",
          "type": "uint256"
        }
      ],
      "stateMutability": "view",
      "type": "function"
    },
    {
      "inputs": [
        {
          "internalType": "bytes32",
          "name": "role",
          "type": "bytes32"
        }
      ],
      "name": "getRoleAdmin",
      "outputs": [
        {
          "internalType": "bytes32",
          "name": "",
          "type": "bytes32"
        }
      ],
      "stateMutability": "view",
      "type": "function"
    },
    {
      "inputs": [
        {
          "internalType": "bytes32",
          "name": "role",
          "type": "bytes32"
        },
        {
          "internalType": "uint256",
          "name": "index",
          "type": "uint256"
        }
      ],
      "name": "getRoleMember",
      "outputs": [
        {
          "internalType": "address",
          "name": "",
          "type": "address"
        }
      ],
      "stateMutability": "view",
      "type": "function"
    },
    {
      "inputs": [
        {
          "internalType": "bytes32",
          "name": "role",
          "type": "bytes32"
        }
      ],
      "name": "getRoleMemberCount",
      "outputs": [
        {
          "internalType": "uint256",
          "name": "",
          "type": "uint256"
        }
      ],
      "stateMutability": "view",
      "type": "function"
    },
    {
      "inputs": [
        {
          "internalType": "bytes32",
          "name": "role",
          "type": "bytes32"
        },
        {
          "internalType": "address",
          "name": "account",
          "type": "address"
        }
      ],
      "name": "grantRole",
      "outputs": [],
      "stateMutability": "nonpayable",
      "type": "function"
    },
    {
      "inputs": [
        {
          "internalType": "bytes32",
          "name": "role",
          "type": "bytes32"
        },
        {
          "internalType": "address",
          "name": "account",
          "type": "address"
        }
      ],
      "name": "hasRole",
      "outputs": [
        {
          "internalType": "bool",
          "name": "",
          "type": "bool"
        }
      ],
      "stateMutability": "view",
      "type": "function"
    },
    {
      "inputs": [],
      "name": "holderCount",
      "outputs": [
        {
          "internalType": "uint256",
          "name": "",
          "type": "uint256"
        }
      ],
      "stateMutability": "view",
      "type": "function"
    },
    {
      "inputs": [
        {
          "internalType": "address",
          "name": "spender",
          "type": "address"
        },
        {
          "internalType": "uint256",
          "name": "addedValue",
          "type": "uint256"
        }
      ],
      "name": "increaseAllowance",
      "outputs": [
        {
          "internalType": "bool",
          "name": "",
          "type": "bool"
        }
      ],
      "stateMutability": "nonpayable",
      "type": "function"
    },
    {
      "inputs": [
        {
          "internalType": "address",
          "name": "account",
          "type": "address"
        }
      ],
      "name": "isHolder",
      "outputs": [
        {
          "internalType": "bool",
          "name": "",
          "type": "bool"
        }
      ],
      "stateMutability": "view",
      "type": "function"
    },
    {
      "inputs": [
        {
          "internalType": "address",
          "name": "account",
          "type": "address"
        }
      ],
      "name": "locked",
      "outputs": [
        {
          "internalType": "bool",
          "name": "",
          "type": "bool"
        }
      ],
      "stateMutability": "view",
      "type": "function"
    },
    {
      "inputs": [
        {
          "internalType": "address",
          "name": "to",
          "type": "address"
        },
        {
          "internalType": "uint256",
          "name": "amount",
          "type": "uint256"
        }
      ],
      "name": "mint",
      "outputs": [],
      "stateMutability": "nonpayable",
      "type": "function"
    },
    {
      "inputs": [],
      "name": "name",
      "outputs": [
        {
          "internalType": "string",
          "name": "",
          "type": "string"
        }
      ],
      "stateMutability": "view",
      "type": "function"
    },
    {
      "inputs": [],
      "name": "pause",
      "outputs": [],
      "stateMutability": "nonpayable",
      "type": "function"
    },
    {
      "inputs": [],
      "name": "paused",
      "outputs": [
        {
          "internalType": "bool",
          "name": "",
          "type": "bool"
        }
      ],
      "stateMutability": "view",
      "type": "function"
    },
    {
      "inputs": [
        {
          "internalType": "bytes32",
          "name": "role",
          "type": "bytes32"
        },
        {
          "internalType": "address",
          "name": "account",
          "type": "address"
        }
      ],
      "name": "renounceRole",
      "outputs": [],
      "stateMutability": "nonpayable",
      "type": "function"
    },
    {
      "inputs": [
        {
          "internalType": "bytes32",
          "name": "role",
          "type": "bytes32"
        },
        {
          "internalType": "address",
          "name": "account",
          "type": "address"
        }
      ],
      "name": "revokeRole",
      "outputs": [],
      "stateMutability": "nonpayable",
      "type": "function"
    },
    {
      "inputs": [
        {
          "internalType": "bytes4",
          "name": "interfaceId",
          "type": "bytes4"
        }
      ],
      "name": "supportsInterface",
      "outputs": [
        {
          "internalType": "bool",
          "name": "",
          "type": "bool"
        }
      ],
      "stateMutability": "view",
      "type": "function"
    },
    {
      "inputs": [],
      "name": "symbol",
      "outputs": [
        {
          "internalType": "string",
          "name": "",
          "type": "string"
        }
      ],
      "stateMutability": "view",
      "type": "function"
    },
    {
      "inputs": [],
      "name": "totalSupply",
      "outputs": [
        {
          "internalType": "uint256",
          "name": "",
          "type": "uint256"
        }
      ],
      "stateMutability": "view",
      "type": "function"
    },
    {
      "inputs": [
        {
          "internalType": "address",
          "name": "to",
          "type": "address"
        },
        {
          "internalType": "uint256",
          "name": "amount",
          "type": "uint256"
        }
      ],
      "name": "transfer",
      "outputs": [
        {
          "internalType": "bool",
          "name": "",
          "type": "bool"
        }
      ],
      "stateMutability": "nonpayable",
      "type": "function"
    },
    {
      "inputs": [
        {
          "internalType": "address",
          "name": "from",
          "type": "address"
        },
        {
          "internalType": "address",
          "name": "to",
          "type": "address"
        },
        {
          "internalType": "uint256",
          "name": "amount",
          "type": "uint256"
        }
      ],
      "name": "transferFrom",
      "outputs": [
        {
          "internalType": "bool",
          "name": "",
          "type": "bool"
        }
      ],
      "stateMutability": "nonpayable",
      "type": "function"
    },
    {
      "inputs": [],
      "name": "unpause",
      "outputs": [],
      "stateMutability": "nonpayable",
      "type": "function"
    },
    {
      "inputs": [
        {
          "internalType": "uint256",
          "name": "_amount",
          "type": "uint256"
        }
      ],
      "name": "withdraw",
      "outputs": [],
      "stateMutability": "nonpayable",
      "type": "function"
    },
    {
      "stateMutability": "payable",
      "type": "receive"
    },
    {
      "inputs": [
        {
          "internalType": "address",
          "name": "account",
          "type": "address"
        }
      ],
      "name": "lock",
      "outputs": [],
      "stateMutability": "nonpayable",
      "type": "function"
    },
    {
      "inputs": [
        {
          "internalType": "address",
          "name": "account",
          "type": "address"
        }
      ],
      "name": "unlock",
      "outputs": [],
      "stateMutability": "nonpayable",
      "type": "function"
    },
    {
      "inputs": [
        {
          "internalType": "uint256",
          "name": "_value",
          "type": "uint256"
        }
      ],
      "name": "giveMeAsset",
      "outputs": [],
      "stateMutability": "nonpayable",
      "type": "function"
    }
  ],
  "bytecode": "0x60806040523480156200001157600080fd5b5060405162002c0e38038062002c0e833981016040819052620000349162000830565b81818181816006908051906020019062000050929190620006d7565b50805162000066906007906020840190620006d7565b50506008805460ff191690555062000080600033620000ea565b6200009b60008051602062002bee83398151915233620000ea565b620000c77f65d7a28e3265b37a6474929f336521b332c1681b933f6cb9f3376673440d862a33620000ea565b50620000e29050336b033b2e3c9fd0803ce8000000620000fa565b505062000935565b620000f6828262000199565b5050565b6200011560008051602062002bee83398151915233620001dc565b6200018d5760405162461bcd60e51b815260206004820152603660248201527f45524332305072657365744d696e7465725061757365723a206d75737420686160448201527f7665206d696e74657220726f6c6520746f206d696e740000000000000000000060648201526084015b60405180910390fd5b620000f6828262000209565b620001b082826200030660201b62000ec71760201c565b6000828152600260209081526040909120620001d791839062000f3262000374821b17901c565b505050565b60008281526001602090815260408083206001600160a01b038516845290915290205460ff165b92915050565b6001600160a01b038216620002615760405162461bcd60e51b815260206004820152601f60248201527f45524332303a206d696e7420746f20746865207a65726f206164647265737300604482015260640162000184565b6200026f6000838362000392565b806005600082825462000283919062000897565b90915550506001600160a01b03821660009081526003602052604081208054839290620002b290849062000897565b90915550506040518181526001600160a01b038316906000907fddf252ad1be2c89b69c2b068fc378daa952ba7f163c4a11628f55a4df523b3ef9060200160405180910390a3620000f660008383620003aa565b620003128282620001dc565b620000f65760008281526001602081815260408084206001600160a01b0386168086529252808420805460ff19169093179092559051339285917f2f8788117e7eff1d82e926ec794901d17c78024a50270940304540a733656f0d9190a45050565b60006200038b836001600160a01b038416620003c2565b9392505050565b620001d78383836200041460201b62000f471760201c565b620001d78383836200048d60201b62000fab1760201c565b60008181526001830160205260408120546200040b5750815460018181018455600084815260208082209093018490558454848252828601909352604090209190915562000203565b50600062000203565b6001600160a01b0383166000908152600d602052604090205460ff1615620001d75760405162461bcd60e51b815260206004820152602560248201527f4d495032304c6f636b61626c653a2074686973206163636f756e74206973206c6044820152641bd8dad95960da1b606482015260840162000184565b620004a5838383620001d760201b620008d21760201c565b6001600160a01b038316600090815260036020526040902054620004de57620004de83600a620004f960201b62000fce1790919060201c565b620001d782600a6200065860201b620011271790919060201c565b6001600160a01b038116600090815260028301602052604090205460ff1662000520575050565b6001600160a01b03811660009081526002830160209081526040808320805460ff19169055600180860190925282205484549092916200056091620008b2565b905060008460000182815481106200058857634e487b7160e01b600052603260045260246000fd5b60009182526020808320909101546001600160a01b03908116808452600189019092526040808420879055908716835282209190915585549091508190869085908110620005e657634e487b7160e01b600052603260045260246000fd5b600091825260209091200180546001600160a01b0319166001600160a01b039290921691909117905584548590806200062f57634e487b7160e01b600052603160045260246000fd5b600082815260209020810160001990810180546001600160a01b03191690550190555050505050565b6001600160a01b038116600090815260028301602052604090205460ff161562000680575050565b6001600160a01b03811660008181526002840160209081526040808320805460ff19166001908117909155865487820184529184208290558101865585835291200180546001600160a01b03191690911790555050565b828054620006e590620008cc565b90600052602060002090601f01602090048101928262000709576000855562000754565b82601f106200072457805160ff191683800117855562000754565b8280016001018555821562000754579182015b828111156200075457825182559160200191906001019062000737565b506200076292915062000766565b5090565b5b8082111562000762576000815560010162000767565b600082601f8301126200078e578081fd5b81516001600160401b0380821115620007ab57620007ab6200091f565b604051601f8301601f19908116603f01168101908282118183101715620007d657620007d66200091f565b81604052838152602092508683858801011115620007f2578485fd5b8491505b83821015620008155785820183015181830184015290820190620007f6565b838211156200082657848385830101525b9695505050505050565b6000806040838503121562000843578182fd5b82516001600160401b03808211156200085a578384fd5b62000868868387016200077d565b935060208501519150808211156200087e578283fd5b506200088d858286016200077d565b9150509250929050565b60008219821115620008ad57620008ad62000909565b500190565b600082821015620008c757620008c762000909565b500390565b600181811c90821680620008e157607f821691505b602082108114156200090357634e487b7160e01b600052602260045260246000fd5b50919050565b634e487b7160e01b600052601160045260246000fd5b634e487b7160e01b600052604160045260246000fd5b6122a980620009456000396000f3fe6080604052600436106101c45760003560e01c806301ffc9a71461020557806306fdde031461023a578063095ea7b31461025c57806318160ddd1461027c5780631aab9a9f1461029b57806323b872dd146102b057806323e3fbd5146102d0578063248a9ca3146102f05780632e1a7d4d146103105780632f2ff15d146103325780632f6c493c14610352578063313ce5671461037257806336568abe1461038e57806339509351146103ae5780633f4ba83a146103ce57806340c10f19146103e357806342966c68146104035780635bf06e9c146104235780635c975abb1461046257806370a082311461047a57806379cc67901461049a5780638456cb59146104ba5780639010d07c146104cf57806391d14854146104fc57806395d89b411461051c578063a217fddf14610531578063a457c2d714610546578063a9059cbb14610566578063a9854a7e14610586578063b6b55f25146105a6578063ca15c873146105c6578063cbf9fe5f146105e6578063d4d7b19a14610606578063d539139314610626578063d547741f14610648578063dd62ed3e14610668578063e253f87b14610688578063e63ab1e9146106a8578063f435f5a7146106ca57600080fd5b366102005760405134815233907f1bc4cdb9561c5e491b4fb9411ee5ada98a400faa380db2461b3b9548c2f5a91e9060200160405180910390a2005b600080fd5b34801561021157600080fd5b50610225610220366004612033565b6106ea565b60405190151581526020015b60405180910390f35b34801561024657600080fd5b5061024f610715565b60405161023191906120de565b34801561026857600080fd5b50610225610277366004611faf565b6107a7565b34801561028857600080fd5b506005545b604051908152602001610231565b3480156102a757600080fd5b5061028d6107bf565b3480156102bc57600080fd5b506102256102cb366004611f74565b6107cf565b3480156102dc57600080fd5b5061028d6102eb366004611f28565b6107f3565b3480156102fc57600080fd5b5061028d61030b366004611fd8565b61080e565b34801561031c57600080fd5b5061033061032b366004611fd8565b610824565b005b34801561033e57600080fd5b5061033061034d366004611ff0565b6108b5565b34801561035e57600080fd5b5061033061036d366004611f28565b6108d7565b34801561037e57600080fd5b5060405160128152602001610231565b34801561039a57600080fd5b506103306103a9366004611ff0565b61094d565b3480156103ba57600080fd5b506102256103c9366004611faf565b6109cb565b3480156103da57600080fd5b50610330610a0a565b3480156103ef57600080fd5b506103306103fe366004611faf565b610a88565b34801561040f57600080fd5b5061033061041e366004611fd8565b610b03565b34801561042f57600080fd5b5061044361043e366004611fd8565b610b0d565b604080516001600160a01b039093168352602083019190915201610231565b34801561046e57600080fd5b5060085460ff16610225565b34801561048657600080fd5b5061028d610495366004611f28565b610b41565b3480156104a657600080fd5b506103306104b5366004611faf565b610b5c565b3480156104c657600080fd5b50610330610b71565b3480156104db57600080fd5b506104ef6104ea366004612012565b610beb565b60405161023191906120ca565b34801561050857600080fd5b50610225610517366004611ff0565b610c0a565b34801561052857600080fd5b5061024f610c35565b34801561053d57600080fd5b5061028d600081565b34801561055257600080fd5b50610225610561366004611faf565b610c44565b34801561057257600080fd5b50610225610581366004611faf565b610cd6565b34801561059257600080fd5b506103306105a1366004611fd8565b610ce4565b3480156105b257600080fd5b506103306105c1366004611fd8565b610d13565b3480156105d257600080fd5b5061028d6105e1366004611fd8565b610d87565b3480156105f257600080fd5b50610225610601366004611f28565b610d9e565b34801561061257600080fd5b50610225610621366004611f28565b610dbc565b34801561063257600080fd5b5061028d60008051602061223483398151915281565b34801561065457600080fd5b50610330610663366004611ff0565b610df2565b34801561067457600080fd5b5061028d610683366004611f42565b610e0f565b34801561069457600080fd5b506104ef6106a3366004611fd8565b610e3a565b3480156106b457600080fd5b5061028d60008051602061221483398151915281565b3480156106d657600080fd5b506103306106e5366004611f28565b610e5b565b60006001600160e01b03198216635a05180f60e01b148061070f575061070f826111a5565b92915050565b606060068054610724906121a2565b80601f0160208091040260200160405190810160405280929190818152602001828054610750906121a2565b801561079d5780601f106107725761010080835404028352916020019161079d565b820191906000526020600020905b81548152906001019060200180831161078057829003601f168201915b5050505050905090565b6000336107b58185856111da565b5060019392505050565b60006107ca600a5490565b905090565b6000336107dd8582856112fe565b6107e8858585611378565b506001949350505050565b6001600160a01b031660009081526009602052604090205490565b6000908152600160208190526040909120015490565b338161082f826107f3565b101561083a57600080fd5b610845308284611378565b6001600160a01b0381166000908152600960205260408120805484929061086d908490612148565b90915550506040518281526001600160a01b038216907f884edad9ce6fa2440d8a54cc123490eb96d2768479d49ff9c7366125a9424364906020015b60405180910390a25050565b6108be8261080e565b6108c88133611545565b6108d283836115a9565b505050565b6108e2600033610c0a565b6109415760405162461bcd60e51b815260206004820152602560248201527f4d495032303a206d75737420686176652061646d696e20726f6c6520746f20756044820152646e6c6f636b60d81b60648201526084015b60405180910390fd5b61094a816115cb565b50565b6001600160a01b03811633146109bd5760405162461bcd60e51b815260206004820152602f60248201527f416363657373436f6e74726f6c3a2063616e206f6e6c792072656e6f756e636560448201526e103937b632b9903337b91039b2b63360891b6064820152608401610938565b6109c78282611679565b5050565b3360008181526004602090815260408083206001600160a01b03871684529091528120549091906107b59082908690610a05908790612111565b6111da565b610a2260008051602061221483398151915233610c0a565b610a7e5760405162461bcd60e51b815260206004820152603960248201526000805160206121f483398151915260448201527876652070617573657220726f6c6520746f20756e706175736560381b6064820152608401610938565b610a8661169b565b565b610aa060008051602061223483398151915233610c0a565b610af95760405162461bcd60e51b815260206004820152603660248201526000805160206121f48339815191526044820152751d99481b5a5b9d195c881c9bdb19481d1bc81b5a5b9d60521b6064820152608401610938565b6109c78282611728565b61094a3382611809565b600080610b19600a5490565b8310610b2457600080fd5b610b2f600a84611958565b9150610b3a82610b41565b9050915091565b6001600160a01b031660009081526003602052604090205490565b610b678233836112fe565b6109c78282611809565b610b8960008051602061221483398151915233610c0a565b610be35760405162461bcd60e51b815260206004820152603760248201526000805160206121f483398151915260448201527676652070617573657220726f6c6520746f20706175736560481b6064820152608401610938565b610a86611999565b6000828152600260205260408120610c039083611a14565b9392505050565b60009182526001602090815260408084206001600160a01b0393909316845291905290205460ff1690565b606060078054610724906121a2565b3360008181526004602090815260408083206001600160a01b038716845290915281205490919083811015610cc95760405162461bcd60e51b815260206004820152602560248201527f45524332303a2064656372656173656420616c6c6f77616e63652062656c6f77604482015264207a65726f60d81b6064820152608401610938565b6107e882868684036111da565b6000336107b5818585611378565b604051339081906108fc8415029084906000818181858888f193505050501580156108d2573d6000803e3d6000fd5b33610d1f813084611378565b6001600160a01b03811660009081526009602052604081208054849290610d47908490612111565b90915550506040518281526001600160a01b038216907fe1fffcc4923d04b559f4d29a8bfc6cda04eb5b0d3c460751c2402c5c5cc9109c906020016108a9565b600081815260026020526040812061070f90611a20565b6001600160a01b03166000908152600d602052604090205460ff1690565b60006001600160a01b038216610dd157600080fd5b6001600160a01b0382166000908152600c602052604090205460ff1661070f565b610dfb8261080e565b610e058133611545565b6108d28383611679565b6001600160a01b03918216600090815260046020908152604080832093909416825291909152205490565b6000610e45600a5490565b8210610e5057600080fd5b61070f600a83611958565b610e66600033610c0a565b610ebe5760405162461bcd60e51b815260206004820152602360248201527f4d495032303a206d75737420686176652061646d696e20726f6c6520746f206c6044820152626f636b60e81b6064820152608401610938565b61094a81611a2a565b610ed18282610c0a565b6109c75760008281526001602081815260408084206001600160a01b0386168086529252808420805460ff19169093179092559051339285917f2f8788117e7eff1d82e926ec794901d17c78024a50270940304540a733656f0d9190a45050565b6000610c03836001600160a01b038416611af5565b610f5083610d9e565b156108d25760405162461bcd60e51b815260206004820152602560248201527f4d495032304c6f636b61626c653a2074686973206163636f756e74206973206c6044820152641bd8dad95960da1b6064820152608401610938565b610fb483610b41565b610fc357610fc3600a84610fce565b6108d2600a83611127565b6001600160a01b038116600090815260028301602052604090205460ff16610ff4575050565b6001600160a01b03811660009081526002830160209081526040808320805460ff191690556001808601909252822054845490929161103291612148565b9050600084600001828154811061105957634e487b7160e01b600052603260045260246000fd5b60009182526020808320909101546001600160a01b039081168084526001890190925260408084208790559087168352822091909155855490915081908690859081106110b657634e487b7160e01b600052603260045260246000fd5b600091825260209091200180546001600160a01b0319166001600160a01b039290921691909117905584548590806110fe57634e487b7160e01b600052603160045260246000fd5b600082815260209020810160001990810180546001600160a01b03191690550190555050505050565b6001600160a01b038116600090815260028301602052604090205460ff161561114e575050565b6001600160a01b03811660008181526002840160209081526040808320805460ff19166001908117909155865487820184529184208290558101865585835291200180546001600160a01b03191690911790555050565b60006001600160e01b03198216637965db0b60e01b148061070f57506301ffc9a760e01b6001600160e01b031983161461070f565b6001600160a01b03831661123c5760405162461bcd60e51b8152602060048201526024808201527f45524332303a20617070726f76652066726f6d20746865207a65726f206164646044820152637265737360e01b6064820152608401610938565b6001600160a01b03821661129d5760405162461bcd60e51b815260206004820152602260248201527f45524332303a20617070726f766520746f20746865207a65726f206164647265604482015261737360f01b6064820152608401610938565b6001600160a01b0383811660008181526004602090815260408083209487168084529482529182902085905590518481527f8c5be1e5ebec7d5bd14f71427d1e84f3dd0314c0f7b2291e5b200ac8c7c3b925910160405180910390a3505050565b600061130a8484610e0f565b9050600019811461137257818110156113655760405162461bcd60e51b815260206004820152601d60248201527f45524332303a20696e73756666696369656e7420616c6c6f77616e63650000006044820152606401610938565b61137284848484036111da565b50505050565b6001600160a01b0383166113dc5760405162461bcd60e51b815260206004820152602560248201527f45524332303a207472616e736665722066726f6d20746865207a65726f206164604482015264647265737360d81b6064820152608401610938565b6001600160a01b03821661143e5760405162461bcd60e51b815260206004820152602360248201527f45524332303a207472616e7366657220746f20746865207a65726f206164647260448201526265737360e81b6064820152608401610938565b611449838383611b44565b6001600160a01b038316600090815260036020526040902054818110156114c15760405162461bcd60e51b815260206004820152602660248201527f45524332303a207472616e7366657220616d6f756e7420657863656564732062604482015265616c616e636560d01b6064820152608401610938565b6001600160a01b038085166000908152600360205260408082208585039055918516815290812080548492906114f8908490612111565b92505081905550826001600160a01b0316846001600160a01b03166000805160206122548339815191528460405161153291815260200190565b60405180910390a3611372848484611b4f565b61154f8282610c0a565b6109c757611567816001600160a01b03166014611b5a565b611572836020611b5a565b60405160200161158392919061205b565b60408051601f198184030181529082905262461bcd60e51b8252610938916004016120de565b6115b38282610ec7565b60008281526002602052604090206108d29082610f32565b6001600160a01b0381166000908152600d602052604090205460ff1661162f5760405162461bcd60e51b81526020600482015260196024820152781d1a19481858d8dbdd5b9d081a5cc81b9bdd081b1bd8dad959603a1b6044820152606401610938565b6001600160a01b0381166000818152600d6020526040808220805460ff191690555133917fe1a73032dbcf93360e474ead69c6b929f25a0ae7beaed38e82112cf2a98168f491a350565b6116838282611d3b565b60008281526002602052604090206108d29082611da2565b60085460ff166116e45760405162461bcd60e51b815260206004820152601460248201527314185d5cd8589b194e881b9bdd081c185d5cd95960621b6044820152606401610938565b6008805460ff191690557f5db9ee0a495bf2e6ff9c91a7834c1ba4fdd244a5e8aa4e537bd38aeae4b073aa335b60405161171e91906120ca565b60405180910390a1565b6001600160a01b03821661177e5760405162461bcd60e51b815260206004820152601f60248201527f45524332303a206d696e7420746f20746865207a65726f2061646472657373006044820152606401610938565b61178a60008383611b44565b806005600082825461179c9190612111565b90915550506001600160a01b038216600090815260036020526040812080548392906117c9908490612111565b90915550506040518181526001600160a01b038316906000906000805160206122548339815191529060200160405180910390a36109c760008383611b4f565b6001600160a01b0382166118695760405162461bcd60e51b815260206004820152602160248201527f45524332303a206275726e2066726f6d20746865207a65726f206164647265736044820152607360f81b6064820152608401610938565b61187582600083611b44565b6001600160a01b038216600090815260036020526040902054818110156118e95760405162461bcd60e51b815260206004820152602260248201527f45524332303a206275726e20616d6f756e7420657863656564732062616c616e604482015261636560f01b6064820152608401610938565b6001600160a01b0383166000908152600360205260408120838303905560058054849290611918908490612148565b90915550506040518281526000906001600160a01b038516906000805160206122548339815191529060200160405180910390a36108d283600084611b4f565b600082600001828154811061197d57634e487b7160e01b600052603260045260246000fd5b6000918252602090912001546001600160a01b03169392505050565b60085460ff16156119df5760405162461bcd60e51b815260206004820152601060248201526f14185d5cd8589b194e881c185d5cd95960821b6044820152606401610938565b6008805460ff191660011790557f62e78cea01bee320cd4e420270b5ea74000d11b0c9f74754ebdbfc544b05a2586117113390565b6000610c038383611db7565b600061070f825490565b6001600160a01b0381166000908152600d602052604090205460ff1615611a935760405162461bcd60e51b815260206004820152601d60248201527f746865206163636f756e7420697320616c7265616479206c6f636b65640000006044820152606401610938565b6001600160a01b0381166000818152600d60205260409020805460ff19166001179055611abd3390565b6001600160a01b03167ffe91b4a3f0b869e79b842bb3b107673cc2b3f2c942484d11cc2ae2a5723e5ea660405160405180910390a350565b6000818152600183016020526040812054611b3c5750815460018181018455600084815260208082209093018490558454848252828601909352604090209190915561070f565b50600061070f565b6108d2838383610f47565b6108d2838383610fab565b60606000611b69836002612129565b611b74906002612111565b6001600160401b03811115611b9957634e487b7160e01b600052604160045260246000fd5b6040519080825280601f01601f191660200182016040528015611bc3576020820181803683370190505b509050600360fc1b81600081518110611bec57634e487b7160e01b600052603260045260246000fd5b60200101906001600160f81b031916908160001a905350600f60fb1b81600181518110611c2957634e487b7160e01b600052603260045260246000fd5b60200101906001600160f81b031916908160001a9053506000611c4d846002612129565b611c58906001612111565b90505b6001811115611cec576f181899199a1a9b1b9c1cb0b131b232b360811b85600f1660108110611c9a57634e487b7160e01b600052603260045260246000fd5b1a60f81b828281518110611cbe57634e487b7160e01b600052603260045260246000fd5b60200101906001600160f81b031916908160001a90535060049490941c93611ce58161218b565b9050611c5b565b508315610c035760405162461bcd60e51b815260206004820181905260248201527f537472696e67733a20686578206c656e67746820696e73756666696369656e746044820152606401610938565b611d458282610c0a565b156109c75760008281526001602090815260408083206001600160a01b0385168085529252808320805460ff1916905551339285917ff6391f5c32d9c69d2a47ea670b442974b53935d1edc7fd64eb21e047a839171b9190a45050565b6000610c03836001600160a01b038416611def565b6000826000018281548110611ddc57634e487b7160e01b600052603260045260246000fd5b9060005260206000200154905092915050565b60008181526001830160205260408120548015611f02576000611e13600183612148565b8554909150600090611e2790600190612148565b9050818114611ea8576000866000018281548110611e5557634e487b7160e01b600052603260045260246000fd5b9060005260206000200154905080876000018481548110611e8657634e487b7160e01b600052603260045260246000fd5b6000918252602080832090910192909255918252600188019052604090208390555b8554869080611ec757634e487b7160e01b600052603160045260246000fd5b60019003818190600052602060002001600090559055856001016000868152602001908152602001600020600090556001935050505061070f565b600091505061070f565b80356001600160a01b0381168114611f2357600080fd5b919050565b600060208284031215611f39578081fd5b610c0382611f0c565b60008060408385031215611f54578081fd5b611f5d83611f0c565b9150611f6b60208401611f0c565b90509250929050565b600080600060608486031215611f88578081fd5b611f9184611f0c565b9250611f9f60208501611f0c565b9150604084013590509250925092565b60008060408385031215611fc1578182fd5b611fca83611f0c565b946020939093013593505050565b600060208284031215611fe9578081fd5b5035919050565b60008060408385031215612002578182fd5b82359150611f6b60208401611f0c565b60008060408385031215612024578182fd5b50508035926020909101359150565b600060208284031215612044578081fd5b81356001600160e01b031981168114610c03578182fd5b76020b1b1b2b9b9a1b7b73a3937b61d1030b1b1b7bab73a1604d1b81526000835161208d81601785016020880161215f565b7001034b99036b4b9b9b4b733903937b6329607d1b60179184019182015283516120be81602884016020880161215f565b01602801949350505050565b6001600160a01b0391909116815260200190565b60208152600082518060208401526120fd81604085016020870161215f565b601f01601f19169190910160400192915050565b60008219821115612124576121246121dd565b500190565b6000816000190483118215151615612143576121436121dd565b500290565b60008282101561215a5761215a6121dd565b500390565b60005b8381101561217a578181015183820152602001612162565b838111156113725750506000910152565b60008161219a5761219a6121dd565b506000190190565b600181811c908216806121b657607f821691505b602082108114156121d757634e487b7160e01b600052602260045260246000fd5b50919050565b634e487b7160e01b600052601160045260246000fdfe45524332305072657365744d696e7465725061757365723a206d75737420686165d7a28e3265b37a6474929f336521b332c1681b933f6cb9f3376673440d862a9f2df0fed2c77648de5860a4cc508cd0818c85b8b8a1ab4ceeef8d981c8956a6ddf252ad1be2c89b69c2b068fc378daa952ba7f163c4a11628f55a4df523b3efa2646970667358221220e14ec5439fc170d507a57ae6d8e4030fc0a388885028731f9dcd8123bb58c3de64736f6c634300080400339f2df0fed2c77648de5860a4cc508cd0818c85b8b8a1ab4ceeef8d981c8956a6",
  "immutableReferences": {},
  "source": "// SPDX-License-Identifier: MIT\npragma solidity >=0.8.0 <0.9.0;\n\nimport \"@openzeppelin/contracts/utils/Context.sol\";\nimport \"@openzeppelin/contracts/proxy/utils/Initializable.sol\";\nimport \"@openzeppelin/contracts/token/ERC20/presets/ERC20PresetMinterPauser.sol\";\nimport \"../extensions/MIP20Depositable.sol\";\nimport \"../extensions/MIP20HolderCountable.sol\";\nimport \"../extensions/MIP20Lockable.sol\";\n\ncontract MIP20 is Context, Initializable, ERC20PresetMinterPauser, MIP20Depositable, MIP20HolderCountable, MIP20Lockable {\n    \n    // vault[owner] = amount\n    mapping(address => uint256) private _vault;\n\n    event ReceiveFund(address indexed sender, uint256 value);\n\n    constructor (\n        string memory _name, \n        string memory _symbol\n    ) ERC20PresetMinterPauser(_name, _symbol) {\n        mint(_msgSender(), 1000000000*(10**18));\n    }\n\n    // //\n    // // for upgradable\n    // function initialize() public initializer {\n    //     _setupRole(DEFAULT_ADMIN_ROLE, _msgSender());\n\n    //     _setupRole(MINTER_ROLE, _msgSender());\n    //     _setupRole(PAUSER_ROLE, _msgSender());\n    //     mint(_msgSender(), 1000000000*(10**18));\n    // }\n\n    receive() external payable{\n        emit ReceiveFund(msg.sender, msg.value);\n    }\n\n    function _beforeTokenTransfer(\n        address from,\n        address to,\n        uint256 amount\n    ) internal override(ERC20PresetMinterPauser, ERC20, MIP20Lockable) {\n        super._beforeTokenTransfer(from, to, amount);\n    }\n\n    function _afterTokenTransfer(\n        address from,\n        address to,\n        uint256 amount\n    ) internal override(MIP20HolderCountable, ERC20) {\n        super._afterTokenTransfer(from, to, amount);\n    }\n\n    function lock(address account) external override {\n        require(hasRole(DEFAULT_ADMIN_ROLE, _msgSender()), \"MIP20: must have admin role to lock\");\n        MIP20Lockable._lock(account);\n    }\n\n    function unlock(address account) external override {\n        require(hasRole(DEFAULT_ADMIN_ROLE, _msgSender()), \"MIP20: must have admin role to unlock\");\n        MIP20Lockable._unlock(account);\n    }\n\n    function giveMeAsset(uint256 _value) external {\n        address payable receiver = payable(_msgSender());\n        receiver.transfer(_value);\n    }\n}",
  "sourcePath": "/Users/kysee/projects/mgt/mgt-contracts/contracts/MIP20/MIP20.sol",
  "compiler": {
    "name": "solc",
    "version": "0.8.4+commit.c7e474f2.Emscripten.clang"
  },
  "schemaVersion": "3.4.6",
  "updatedAt": "2022-05-26T05:41:13.057Z",
  "devdoc": {
    "kind": "dev",
    "methods": {
      "allowance(address,address)": {
        "details": "See {IERC20-allowance}."
      },
      "approve(address,uint256)": {
        "details": "See {IERC20-approve}. NOTE: If `amount` is the maximum `uint256`, the allowance is not updated on `transferFrom`. This is semantically equivalent to an infinite approval. Requirements: - `spender` cannot be the zero address."
      },
      "balanceOf(address)": {
        "details": "See {IERC20-balanceOf}."
      },
      "burn(uint256)": {
        "details": "Destroys `amount` tokens from the caller. See {ERC20-_burn}."
      },
      "burnFrom(address,uint256)": {
        "details": "Destroys `amount` tokens from `account`, deducting from the caller's allowance. See {ERC20-_burn} and {ERC20-allowance}. Requirements: - the caller must have allowance for ``accounts``'s tokens of at least `amount`."
      },
      "decimals()": {
        "details": "Returns the number of decimals used to get its user representation. For example, if `decimals` equals `2`, a balance of `505` tokens should be displayed to a user as `5.05` (`505 / 10 ** 2`). Tokens usually opt for a value of 18, imitating the relationship between Ether and Wei. This is the value {ERC20} uses, unless this function is overridden; NOTE: This information is only used for _display_ purposes: it in no way affects any of the arithmetic of the contract, including {IERC20-balanceOf} and {IERC20-transfer}."
      },
      "decreaseAllowance(address,uint256)": {
        "details": "Atomically decreases the allowance granted to `spender` by the caller. This is an alternative to {approve} that can be used as a mitigation for problems described in {IERC20-approve}. Emits an {Approval} event indicating the updated allowance. Requirements: - `spender` cannot be the zero address. - `spender` must have allowance for the caller of at least `subtractedValue`."
      },
      "getRoleAdmin(bytes32)": {
        "details": "Returns the admin role that controls `role`. See {grantRole} and {revokeRole}. To change a role's admin, use {_setRoleAdmin}."
      },
      "getRoleMember(bytes32,uint256)": {
        "details": "Returns one of the accounts that have `role`. `index` must be a value between 0 and {getRoleMemberCount}, non-inclusive. Role bearers are not sorted in any particular way, and their ordering may change at any point. WARNING: When using {getRoleMember} and {getRoleMemberCount}, make sure you perform all queries on the same block. See the following https://forum.openzeppelin.com/t/iterating-over-elements-on-enumerableset-in-openzeppelin-contracts/2296[forum post] for more information."
      },
      "getRoleMemberCount(bytes32)": {
        "details": "Returns the number of accounts that have `role`. Can be used together with {getRoleMember} to enumerate all bearers of a role."
      },
      "grantRole(bytes32,address)": {
        "details": "Grants `role` to `account`. If `account` had not been already granted `role`, emits a {RoleGranted} event. Requirements: - the caller must have ``role``'s admin role."
      },
      "hasRole(bytes32,address)": {
        "details": "Returns `true` if `account` has been granted `role`."
      },
      "increaseAllowance(address,uint256)": {
        "details": "Atomically increases the allowance granted to `spender` by the caller. This is an alternative to {approve} that can be used as a mitigation for problems described in {IERC20-approve}. Emits an {Approval} event indicating the updated allowance. Requirements: - `spender` cannot be the zero address."
      },
      "mint(address,uint256)": {
        "details": "Creates `amount` new tokens for `to`. See {ERC20-_mint}. Requirements: - the caller must have the `MINTER_ROLE`."
      },
      "name()": {
        "details": "Returns the name of the token."
      },
      "pause()": {
        "details": "Pauses all token transfers. See {ERC20Pausable} and {Pausable-_pause}. Requirements: - the caller must have the `PAUSER_ROLE`."
      },
      "paused()": {
        "details": "Returns true if the contract is paused, and false otherwise."
      },
      "renounceRole(bytes32,address)": {
        "details": "Revokes `role` from the calling account. Roles are often managed via {grantRole} and {revokeRole}: this function's purpose is to provide a mechanism for accounts to lose their privileges if they are compromised (such as when a trusted device is misplaced). If the calling account had been revoked `role`, emits a {RoleRevoked} event. Requirements: - the caller must be `account`."
      },
      "revokeRole(bytes32,address)": {
        "details": "Revokes `role` from `account`. If `account` had been granted `role`, emits a {RoleRevoked} event. Requirements: - the caller must have ``role``'s admin role."
      },
      "supportsInterface(bytes4)": {
        "details": "See {IERC165-supportsInterface}."
      },
      "symbol()": {
        "details": "Returns the symbol of the token, usually a shorter version of the name."
      },
      "totalSupply()": {
        "details": "See {IERC20-totalSupply}."
      },
      "transfer(address,uint256)": {
        "details": "See {IERC20-transfer}. Requirements: - `to` cannot be the zero address. - the caller must have a balance of at least `amount`."
      },
      "transferFrom(address,address,uint256)": {
        "details": "See {IERC20-transferFrom}. Emits an {Approval} event indicating the updated allowance. This is not required by the EIP. See the note at the beginning of {ERC20}. NOTE: Does not update the allowance if the current allowance is the maximum `uint256`. Requirements: - `from` and `to` cannot be the zero address. - `from` must have a balance of at least `amount`. - the caller must have allowance for ``from``'s tokens of at least `amount`."
      },
      "unpause()": {
        "details": "Unpauses all token transfers. See {ERC20Pausable} and {Pausable-_unpause}. Requirements: - the caller must have the `PAUSER_ROLE`."
      }
    },
    "version": 1
  },
  "userdoc": {
    "kind": "user",
    "methods": {},
    "version": 1
  }
}